{
  "_format": "hh-sol-artifact-1",
  "contractName": "MyNFT",
  "sourceName": "contracts/MyNFT.sol",
  "abi": [
    {
      "inputs": [],
      "stateMutability": "nonpayable",
      "type": "constructor"
    },
    {
      "anonymous": false,
      "inputs": [
        {
          "indexed": true,
          "internalType": "address",
          "name": "owner",
          "type": "address"
        },
        {
          "indexed": true,
          "internalType": "address",
          "name": "approved",
          "type": "address"
        },
        {
          "indexed": true,
          "internalType": "uint256",
          "name": "tokenId",
          "type": "uint256"
        }
      ],
      "name": "Approval",
      "type": "event"
    },
    {
      "anonymous": false,
      "inputs": [
        {
          "indexed": true,
          "internalType": "address",
          "name": "owner",
          "type": "address"
        },
        {
          "indexed": true,
          "internalType": "address",
          "name": "operator",
          "type": "address"
        },
        {
          "indexed": false,
          "internalType": "bool",
          "name": "approved",
          "type": "bool"
        }
      ],
      "name": "ApprovalForAll",
      "type": "event"
    },
    {
      "anonymous": false,
      "inputs": [
        {
          "indexed": true,
          "internalType": "address",
          "name": "minter",
          "type": "address"
        },
        {
          "indexed": false,
          "internalType": "uint256",
          "name": "tokenId",
          "type": "uint256"
        }
      ],
      "name": "MintNFT",
      "type": "event"
    },
    {
      "anonymous": false,
      "inputs": [
        {
          "indexed": true,
          "internalType": "address",
          "name": "beforeAddr",
          "type": "address"
        },
        {
          "indexed": true,
          "internalType": "address",
          "name": "afterAddr",
          "type": "address"
        }
      ],
      "name": "MinterSet",
      "type": "event"
    },
    {
      "anonymous": false,
      "inputs": [
        {
          "indexed": true,
          "internalType": "address",
          "name": "previousOwner",
          "type": "address"
        },
        {
          "indexed": true,
          "internalType": "address",
          "name": "newOwner",
          "type": "address"
        }
      ],
      "name": "OwnershipTransferred",
      "type": "event"
    },
    {
      "anonymous": false,
      "inputs": [
        {
          "indexed": true,
          "internalType": "address",
          "name": "from",
          "type": "address"
        },
        {
          "indexed": true,
          "internalType": "address",
          "name": "to",
          "type": "address"
        },
        {
          "indexed": true,
          "internalType": "uint256",
          "name": "tokenId",
          "type": "uint256"
        }
      ],
      "name": "Transfer",
      "type": "event"
    },
    {
      "inputs": [],
      "name": "Minter",
      "outputs": [
        {
          "internalType": "address",
          "name": "",
          "type": "address"
        }
      ],
      "stateMutability": "view",
      "type": "function"
    },
    {
      "inputs": [
        {
          "internalType": "address",
          "name": "to",
          "type": "address"
        },
        {
          "internalType": "uint256",
          "name": "tokenId",
          "type": "uint256"
        }
      ],
      "name": "approve",
      "outputs": [],
      "stateMutability": "nonpayable",
      "type": "function"
    },
    {
      "inputs": [
        {
          "internalType": "address",
          "name": "owner",
          "type": "address"
        }
      ],
      "name": "balanceOf",
      "outputs": [
        {
          "internalType": "uint256",
          "name": "",
          "type": "uint256"
        }
      ],
      "stateMutability": "view",
      "type": "function"
    },
    {
      "inputs": [
        {
          "internalType": "uint256",
          "name": "tokenId",
          "type": "uint256"
        }
      ],
      "name": "getApproved",
      "outputs": [
        {
          "internalType": "address",
          "name": "",
          "type": "address"
        }
      ],
      "stateMutability": "view",
      "type": "function"
    },
    {
      "inputs": [],
      "name": "getTokenCount",
      "outputs": [
        {
          "internalType": "uint256",
          "name": "",
          "type": "uint256"
        }
      ],
      "stateMutability": "view",
      "type": "function"
    },
    {
      "inputs": [
        {
          "internalType": "address",
          "name": "owner",
          "type": "address"
        },
        {
          "internalType": "address",
          "name": "operator",
          "type": "address"
        }
      ],
      "name": "isApprovedForAll",
      "outputs": [
        {
          "internalType": "bool",
          "name": "",
          "type": "bool"
        }
      ],
      "stateMutability": "view",
      "type": "function"
    },
    {
      "inputs": [
        {
          "internalType": "address",
          "name": "minter",
          "type": "address"
        },
        {
          "internalType": "string",
          "name": "metaURI",
          "type": "string"
        }
      ],
      "name": "mintNFT",
      "outputs": [
        {
          "internalType": "uint256",
          "name": "tokenId",
          "type": "uint256"
        }
      ],
      "stateMutability": "nonpayable",
      "type": "function"
    },
    {
      "inputs": [],
      "name": "name",
      "outputs": [
        {
          "internalType": "string",
          "name": "",
          "type": "string"
        }
      ],
      "stateMutability": "view",
      "type": "function"
    },
    {
      "inputs": [],
      "name": "owner",
      "outputs": [
        {
          "internalType": "address",
          "name": "",
          "type": "address"
        }
      ],
      "stateMutability": "view",
      "type": "function"
    },
    {
      "inputs": [
        {
          "internalType": "uint256",
          "name": "tokenId",
          "type": "uint256"
        }
      ],
      "name": "ownerOf",
      "outputs": [
        {
          "internalType": "address",
          "name": "",
          "type": "address"
        }
      ],
      "stateMutability": "view",
      "type": "function"
    },
    {
      "inputs": [],
      "name": "renounceOwnership",
      "outputs": [],
      "stateMutability": "nonpayable",
      "type": "function"
    },
    {
      "inputs": [
        {
          "internalType": "address",
          "name": "from",
          "type": "address"
        },
        {
          "internalType": "address",
          "name": "to",
          "type": "address"
        },
        {
          "internalType": "uint256",
          "name": "tokenId",
          "type": "uint256"
        }
      ],
      "name": "safeTransferFrom",
      "outputs": [],
      "stateMutability": "nonpayable",
      "type": "function"
    },
    {
      "inputs": [
        {
          "internalType": "address",
          "name": "from",
          "type": "address"
        },
        {
          "internalType": "address",
          "name": "to",
          "type": "address"
        },
        {
          "internalType": "uint256",
          "name": "tokenId",
          "type": "uint256"
        },
        {
          "internalType": "bytes",
          "name": "_data",
          "type": "bytes"
        }
      ],
      "name": "safeTransferFrom",
      "outputs": [],
      "stateMutability": "nonpayable",
      "type": "function"
    },
    {
      "inputs": [
        {
          "internalType": "address",
          "name": "operator",
          "type": "address"
        },
        {
          "internalType": "bool",
          "name": "approved",
          "type": "bool"
        }
      ],
      "name": "setApprovalForAll",
      "outputs": [],
      "stateMutability": "nonpayable",
      "type": "function"
    },
    {
      "inputs": [
        {
          "internalType": "address",
          "name": "minter",
          "type": "address"
        }
      ],
      "name": "setMinter",
      "outputs": [],
      "stateMutability": "nonpayable",
      "type": "function"
    },
    {
      "inputs": [
        {
          "internalType": "bytes4",
          "name": "interfaceId",
          "type": "bytes4"
        }
      ],
      "name": "supportsInterface",
      "outputs": [
        {
          "internalType": "bool",
          "name": "",
          "type": "bool"
        }
      ],
      "stateMutability": "view",
      "type": "function"
    },
    {
      "inputs": [],
      "name": "symbol",
      "outputs": [
        {
          "internalType": "string",
          "name": "",
          "type": "string"
        }
      ],
      "stateMutability": "view",
      "type": "function"
    },
    {
      "inputs": [
        {
          "internalType": "uint256",
          "name": "tokenId",
          "type": "uint256"
        }
      ],
      "name": "tokenURI",
      "outputs": [
        {
          "internalType": "string",
          "name": "",
          "type": "string"
        }
      ],
      "stateMutability": "view",
      "type": "function"
    },
    {
      "inputs": [
        {
          "internalType": "address",
          "name": "from",
          "type": "address"
        },
        {
          "internalType": "address",
          "name": "to",
          "type": "address"
        },
        {
          "internalType": "uint256",
          "name": "tokenId",
          "type": "uint256"
        }
      ],
      "name": "transferFrom",
      "outputs": [],
      "stateMutability": "nonpayable",
      "type": "function"
    },
    {
      "inputs": [
        {
          "internalType": "address",
          "name": "newOwner",
          "type": "address"
        }
      ],
      "name": "transferOwnership",
      "outputs": [],
      "stateMutability": "nonpayable",
      "type": "function"
    },
    {
      "inputs": [
        {
          "internalType": "address",
          "name": "wallet",
          "type": "address"
        }
      ],
      "name": "withdraw",
      "outputs": [],
      "stateMutability": "nonpayable",
      "type": "function"
    },
    {
      "stateMutability": "payable",
      "type": "receive"
    }
  ],
  "bytecode": "0x60806040523480156200001157600080fd5b506040518060400160405280600581526020017f4d794e46540000000000000000000000000000000000000000000000000000008152506040518060400160405280600581526020017f4d594e46540000000000000000000000000000000000000000000000000000008152506200009e62000092620000e060201b60201c565b620000e860201b60201c565b8160019080519060200190620000b6929190620001ac565b508060029080519060200190620000cf929190620001ac565b5050506001600881905550620002c1565b600033905090565b60008060009054906101000a900473ffffffffffffffffffffffffffffffffffffffff169050816000806101000a81548173ffffffffffffffffffffffffffffffffffffffff021916908373ffffffffffffffffffffffffffffffffffffffff1602179055508173ffffffffffffffffffffffffffffffffffffffff168173ffffffffffffffffffffffffffffffffffffffff167f8be0079c531659141344cd1fd0a4f28419497f9722a3daafe3b4186f6b6457e060405160405180910390a35050565b828054620001ba906200025c565b90600052602060002090601f016020900481019282620001de57600085556200022a565b82601f10620001f957805160ff19168380011785556200022a565b828001600101855582156200022a579182015b82811115620002295782518255916020019190600101906200020c565b5b5090506200023991906200023d565b5090565b5b80821115620002585760008160009055506001016200023e565b5090565b600060028204905060018216806200027557607f821691505b602082108114156200028c576200028b62000292565b5b50919050565b7f4e487b7100000000000000000000000000000000000000000000000000000000600052602260045260246000fd5b6136eb80620002d16000396000f3fe60806040526004361061012e5760003560e01c8063715018a6116100ab578063b88d4fde1161006f578063b88d4fde146103e9578063c87b56dd14610412578063e985e9c51461044f578063eacabe141461048c578063f2fde38b146104c9578063fca3b5aa146104f257610135565b8063715018a61461032857806378a895671461033f5780638da5cb5b1461036a57806395d89b4114610395578063a22cb465146103c057610135565b806342842e0e116100f257806342842e0e146102315780634de7a8b81461025a57806351cff8d9146102855780636352211e146102ae57806370a08231146102eb57610135565b806301ffc9a71461013a57806306fdde0314610177578063081812fc146101a2578063095ea7b3146101df57806323b872dd1461020857610135565b3661013557005b600080fd5b34801561014657600080fd5b50610161600480360381019061015c91906124ea565b61051b565b60405161016e91906129c2565b60405180910390f35b34801561018357600080fd5b5061018c6105fd565b60405161019991906129dd565b60405180910390f35b3480156101ae57600080fd5b506101c960048036038101906101c4919061253c565b61068f565b6040516101d6919061295b565b60405180910390f35b3480156101eb57600080fd5b50610206600480360381019061020191906124ae565b610714565b005b34801561021457600080fd5b5061022f600480360381019061022a9190612354565b61082c565b005b34801561023d57600080fd5b5061025860048036038101906102539190612354565b61088c565b005b34801561026657600080fd5b5061026f6108ac565b60405161027c919061295b565b60405180910390f35b34801561029157600080fd5b506102ac60048036038101906102a791906122ef565b6108d2565b005b3480156102ba57600080fd5b506102d560048036038101906102d0919061253c565b610998565b6040516102e2919061295b565b60405180910390f35b3480156102f757600080fd5b50610312600480360381019061030d91906122ef565b610a4a565b60405161031f9190612cbf565b60405180910390f35b34801561033457600080fd5b5061033d610b02565b005b34801561034b57600080fd5b50610354610b8a565b6040516103619190612cbf565b60405180910390f35b34801561037657600080fd5b5061037f610b9b565b60405161038c919061295b565b60405180910390f35b3480156103a157600080fd5b506103aa610bc4565b6040516103b791906129dd565b60405180910390f35b3480156103cc57600080fd5b506103e760048036038101906103e2919061241e565b610c56565b005b3480156103f557600080fd5b50610410600480360381019061040b91906123a3565b610c6c565b005b34801561041e57600080fd5b506104396004803603810190610434919061253c565b610cce565b60405161044691906129dd565b60405180910390f35b34801561045b57600080fd5b5061047660048036038101906104719190612318565b610e20565b60405161048391906129c2565b60405180910390f35b34801561049857600080fd5b506104b360048036038101906104ae919061245a565b610eb4565b6040516104c09190612cbf565b60405180910390f35b3480156104d557600080fd5b506104f060048036038101906104eb91906122ef565b611065565b005b3480156104fe57600080fd5b50610519600480360381019061051491906122ef565b61115d565b005b60007f80ac58cd000000000000000000000000000000000000000000000000000000007bffffffffffffffffffffffffffffffffffffffffffffffffffffffff1916827bffffffffffffffffffffffffffffffffffffffffffffffffffffffff191614806105e657507f5b5e139f000000000000000000000000000000000000000000000000000000007bffffffffffffffffffffffffffffffffffffffffffffffffffffffff1916827bffffffffffffffffffffffffffffffffffffffffffffffffffffffff1916145b806105f657506105f582611309565b5b9050919050565b60606001805461060c90612f15565b80601f016020809104026020016040519081016040528092919081815260200182805461063890612f15565b80156106855780601f1061065a57610100808354040283529160200191610685565b820191906000526020600020905b81548152906001019060200180831161066857829003601f168201915b5050505050905090565b600061069a82611373565b6106d9576040517f08c379a00000000000000000000000000000000000000000000000000000000081526004016106d090612bdf565b60405180910390fd5b6005600083815260200190815260200160002060009054906101000a900473ffffffffffffffffffffffffffffffffffffffff169050919050565b600061071f82610998565b90508073ffffffffffffffffffffffffffffffffffffffff168373ffffffffffffffffffffffffffffffffffffffff161415610790576040517f08c379a000000000000000000000000000000000000000000000000000000000815260040161078790612c3f565b60405180910390fd5b8073ffffffffffffffffffffffffffffffffffffffff166107af6113df565b73ffffffffffffffffffffffffffffffffffffffff1614806107de57506107dd816107d86113df565b610e20565b5b61081d576040517f08c379a000000000000000000000000000000000000000000000000000000000815260040161081490612b1f565b60405180910390fd5b61082783836113e7565b505050565b61083d6108376113df565b826114a0565b61087c576040517f08c379a000000000000000000000000000000000000000000000000000000000815260040161087390612c5f565b60405180910390fd5b61088783838361157e565b505050565b6108a783838360405180602001604052806000815250610c6c565b505050565b600960009054906101000a900473ffffffffffffffffffffffffffffffffffffffff1681565b6108da6113df565b73ffffffffffffffffffffffffffffffffffffffff166108f8610b9b565b73ffffffffffffffffffffffffffffffffffffffff161461094e576040517f08c379a000000000000000000000000000000000000000000000000000000000815260040161094590612bff565b60405180910390fd5b8073ffffffffffffffffffffffffffffffffffffffff166108fc479081150290604051600060405180830381858888f19350505050158015610994573d6000803e3d6000fd5b5050565b6000806003600084815260200190815260200160002060009054906101000a900473ffffffffffffffffffffffffffffffffffffffff169050600073ffffffffffffffffffffffffffffffffffffffff168173ffffffffffffffffffffffffffffffffffffffff161415610a41576040517f08c379a0000000000000000000000000000000000000000000000000000000008152600401610a3890612b5f565b60405180910390fd5b80915050919050565b60008073ffffffffffffffffffffffffffffffffffffffff168273ffffffffffffffffffffffffffffffffffffffff161415610abb576040517f08c379a0000000000000000000000000000000000000000000000000000000008152600401610ab290612b3f565b60405180910390fd5b600460008373ffffffffffffffffffffffffffffffffffffffff1673ffffffffffffffffffffffffffffffffffffffff168152602001908152602001600020549050919050565b610b0a6113df565b73ffffffffffffffffffffffffffffffffffffffff16610b28610b9b565b73ffffffffffffffffffffffffffffffffffffffff1614610b7e576040517f08c379a0000000000000000000000000000000000000000000000000000000008152600401610b7590612bff565b60405180910390fd5b610b8860006117e5565b565b6000610b96600a6118a9565b905090565b60008060009054906101000a900473ffffffffffffffffffffffffffffffffffffffff16905090565b606060028054610bd390612f15565b80601f0160208091040260200160405190810160405280929190818152602001828054610bff90612f15565b8015610c4c5780601f10610c2157610100808354040283529160200191610c4c565b820191906000526020600020905b815481529060010190602001808311610c2f57829003601f168201915b5050505050905090565b610c68610c616113df565b83836118b7565b5050565b610c7d610c776113df565b836114a0565b610cbc576040517f08c379a0000000000000000000000000000000000000000000000000000000008152600401610cb390612c5f565b60405180910390fd5b610cc884848484611a24565b50505050565b6060610cd982611373565b610d18576040517f08c379a0000000000000000000000000000000000000000000000000000000008152600401610d0f90612bbf565b60405180910390fd5b6000600760008481526020019081526020016000208054610d3890612f15565b80601f0160208091040260200160405190810160405280929190818152602001828054610d6490612f15565b8015610db15780601f10610d8657610100808354040283529160200191610db1565b820191906000526020600020905b815481529060010190602001808311610d9457829003601f168201915b505050505090506000610dc2611a80565b9050600081511415610dd8578192505050610e1b565b600082511115610e0d578082604051602001610df5929190612937565b60405160208183030381529060405292505050610e1b565b610e1684611a97565b925050505b919050565b6000600660008473ffffffffffffffffffffffffffffffffffffffff1673ffffffffffffffffffffffffffffffffffffffff16815260200190815260200160002060008373ffffffffffffffffffffffffffffffffffffffff1673ffffffffffffffffffffffffffffffffffffffff16815260200190815260200160002060009054906101000a900460ff16905092915050565b600060026008541415610efc576040517f08c379a0000000000000000000000000000000000000000000000000000000008152600401610ef390612c7f565b60405180910390fd5b6002600881905550600960009054906101000a900473ffffffffffffffffffffffffffffffffffffffff1673ffffffffffffffffffffffffffffffffffffffff163373ffffffffffffffffffffffffffffffffffffffff1614610f94576040517f08c379a0000000000000000000000000000000000000000000000000000000008152600401610f8b90612c9f565b60405180910390fd5b6000610f9f84610a4a565b14610fdf576040517f08c379a0000000000000000000000000000000000000000000000000000000008152600401610fd690612abf565b60405180910390fd5b610fe9600a611b3e565b610ff3600a6118a9565b9050610fff8382611b54565b6110098183611d2e565b8273ffffffffffffffffffffffffffffffffffffffff167f1f89f147a58d1673945cf416187db98efc8208408c011b91887acd59fd8523c38260405161104f9190612cbf565b60405180910390a2600160088190555092915050565b61106d6113df565b73ffffffffffffffffffffffffffffffffffffffff1661108b610b9b565b73ffffffffffffffffffffffffffffffffffffffff16146110e1576040517f08c379a00000000000000000000000000000000000000000000000000000000081526004016110d890612bff565b60405180910390fd5b600073ffffffffffffffffffffffffffffffffffffffff168173ffffffffffffffffffffffffffffffffffffffff161415611151576040517f08c379a000000000000000000000000000000000000000000000000000000000815260040161114890612a1f565b60405180910390fd5b61115a816117e5565b50565b6111656113df565b73ffffffffffffffffffffffffffffffffffffffff16611183610b9b565b73ffffffffffffffffffffffffffffffffffffffff16146111d9576040517f08c379a00000000000000000000000000000000000000000000000000000000081526004016111d090612bff565b60405180910390fd5b600073ffffffffffffffffffffffffffffffffffffffff168173ffffffffffffffffffffffffffffffffffffffff161415611249576040517f08c379a000000000000000000000000000000000000000000000000000000000815260040161124090612aff565b60405180910390fd5b8073ffffffffffffffffffffffffffffffffffffffff16600960009054906101000a900473ffffffffffffffffffffffffffffffffffffffff1673ffffffffffffffffffffffffffffffffffffffff167f02b23d62d8f733974f8cb13eb804b20135521322b70997c991fc01406632389f60405160405180910390a380600960006101000a81548173ffffffffffffffffffffffffffffffffffffffff021916908373ffffffffffffffffffffffffffffffffffffffff16021790555050565b60007f01ffc9a7000000000000000000000000000000000000000000000000000000007bffffffffffffffffffffffffffffffffffffffffffffffffffffffff1916827bffffffffffffffffffffffffffffffffffffffffffffffffffffffff1916149050919050565b60008073ffffffffffffffffffffffffffffffffffffffff166003600084815260200190815260200160002060009054906101000a900473ffffffffffffffffffffffffffffffffffffffff1673ffffffffffffffffffffffffffffffffffffffff1614159050919050565b600033905090565b816005600083815260200190815260200160002060006101000a81548173ffffffffffffffffffffffffffffffffffffffff021916908373ffffffffffffffffffffffffffffffffffffffff160217905550808273ffffffffffffffffffffffffffffffffffffffff1661145a83610998565b73ffffffffffffffffffffffffffffffffffffffff167f8c5be1e5ebec7d5bd14f71427d1e84f3dd0314c0f7b2291e5b200ac8c7c3b92560405160405180910390a45050565b60006114ab82611373565b6114ea576040517f08c379a00000000000000000000000000000000000000000000000000000000081526004016114e190612adf565b60405180910390fd5b60006114f583610998565b90508073ffffffffffffffffffffffffffffffffffffffff168473ffffffffffffffffffffffffffffffffffffffff16148061153757506115368185610e20565b5b8061157557508373ffffffffffffffffffffffffffffffffffffffff1661155d8461068f565b73ffffffffffffffffffffffffffffffffffffffff16145b91505092915050565b8273ffffffffffffffffffffffffffffffffffffffff1661159e82610998565b73ffffffffffffffffffffffffffffffffffffffff16146115f4576040517f08c379a00000000000000000000000000000000000000000000000000000000081526004016115eb90612a3f565b60405180910390fd5b600073ffffffffffffffffffffffffffffffffffffffff168273ffffffffffffffffffffffffffffffffffffffff161415611664576040517f08c379a000000000000000000000000000000000000000000000000000000000815260040161165b90612a7f565b60405180910390fd5b61166f838383611da2565b61167a6000826113e7565b6001600460008573ffffffffffffffffffffffffffffffffffffffff1673ffffffffffffffffffffffffffffffffffffffff16815260200190815260200160002060008282546116ca9190612e2b565b925050819055506001600460008473ffffffffffffffffffffffffffffffffffffffff1673ffffffffffffffffffffffffffffffffffffffff16815260200190815260200160002060008282546117219190612da4565b92505081905550816003600083815260200190815260200160002060006101000a81548173ffffffffffffffffffffffffffffffffffffffff021916908373ffffffffffffffffffffffffffffffffffffffff160217905550808273ffffffffffffffffffffffffffffffffffffffff168473ffffffffffffffffffffffffffffffffffffffff167fddf252ad1be2c89b69c2b068fc378daa952ba7f163c4a11628f55a4df523b3ef60405160405180910390a46117e0838383611da7565b505050565b60008060009054906101000a900473ffffffffffffffffffffffffffffffffffffffff169050816000806101000a81548173ffffffffffffffffffffffffffffffffffffffff021916908373ffffffffffffffffffffffffffffffffffffffff1602179055508173ffffffffffffffffffffffffffffffffffffffff168173ffffffffffffffffffffffffffffffffffffffff167f8be0079c531659141344cd1fd0a4f28419497f9722a3daafe3b4186f6b6457e060405160405180910390a35050565b600081600001549050919050565b8173ffffffffffffffffffffffffffffffffffffffff168373ffffffffffffffffffffffffffffffffffffffff161415611926576040517f08c379a000000000000000000000000000000000000000000000000000000000815260040161191d90612a9f565b60405180910390fd5b80600660008573ffffffffffffffffffffffffffffffffffffffff1673ffffffffffffffffffffffffffffffffffffffff16815260200190815260200160002060008473ffffffffffffffffffffffffffffffffffffffff1673ffffffffffffffffffffffffffffffffffffffff16815260200190815260200160002060006101000a81548160ff0219169083151502179055508173ffffffffffffffffffffffffffffffffffffffff168373ffffffffffffffffffffffffffffffffffffffff167f17307eab39ab6107e8899845ad3d59bd9653f200f220920489ca2b5937696c3183604051611a1791906129c2565b60405180910390a3505050565b611a2f84848461157e565b611a3b84848484611dac565b611a7a576040517f08c379a0000000000000000000000000000000000000000000000000000000008152600401611a71906129ff565b60405180910390fd5b50505050565b606060405180602001604052806000815250905090565b6060611aa282611373565b611ae1576040517f08c379a0000000000000000000000000000000000000000000000000000000008152600401611ad890612c1f565b60405180910390fd5b6000611aeb611a80565b90506000815111611b0b5760405180602001604052806000815250611b36565b80611b1584611f43565b604051602001611b26929190612937565b6040516020818303038152906040525b915050919050565b6001816000016000828254019250508190555050565b600073ffffffffffffffffffffffffffffffffffffffff168273ffffffffffffffffffffffffffffffffffffffff161415611bc4576040517f08c379a0000000000000000000000000000000000000000000000000000000008152600401611bbb90612b9f565b60405180910390fd5b611bcd81611373565b15611c0d576040517f08c379a0000000000000000000000000000000000000000000000000000000008152600401611c0490612a5f565b60405180910390fd5b611c1960008383611da2565b6001600460008473ffffffffffffffffffffffffffffffffffffffff1673ffffffffffffffffffffffffffffffffffffffff1681526020019081526020016000206000828254611c699190612da4565b92505081905550816003600083815260200190815260200160002060006101000a81548173ffffffffffffffffffffffffffffffffffffffff021916908373ffffffffffffffffffffffffffffffffffffffff160217905550808273ffffffffffffffffffffffffffffffffffffffff16600073ffffffffffffffffffffffffffffffffffffffff167fddf252ad1be2c89b69c2b068fc378daa952ba7f163c4a11628f55a4df523b3ef60405160405180910390a4611d2a60008383611da7565b5050565b611d3782611373565b611d76576040517f08c379a0000000000000000000000000000000000000000000000000000000008152600401611d6d90612b7f565b60405180910390fd5b80600760008481526020019081526020016000209080519060200190611d9d929190612113565b505050565b505050565b505050565b6000611dcd8473ffffffffffffffffffffffffffffffffffffffff166120f0565b15611f36578373ffffffffffffffffffffffffffffffffffffffff1663150b7a02611df66113df565b8786866040518563ffffffff1660e01b8152600401611e189493929190612976565b602060405180830381600087803b158015611e3257600080fd5b505af1925050508015611e6357506040513d601f19601f82011682018060405250810190611e609190612513565b60015b611ee6573d8060008114611e93576040519150601f19603f3d011682016040523d82523d6000602084013e611e98565b606091505b50600081511415611ede576040517f08c379a0000000000000000000000000000000000000000000000000000000008152600401611ed5906129ff565b60405180910390fd5b805181602001fd5b63150b7a0260e01b7bffffffffffffffffffffffffffffffffffffffffffffffffffffffff1916817bffffffffffffffffffffffffffffffffffffffffffffffffffffffff191614915050611f3b565b600190505b949350505050565b60606000821415611f8b576040518060400160405280600181526020017f300000000000000000000000000000000000000000000000000000000000000081525090506120eb565b600082905060005b60008214611fbd578080611fa690612f78565b915050600a82611fb69190612dfa565b9150611f93565b60008167ffffffffffffffff811115611fff577f4e487b7100000000000000000000000000000000000000000000000000000000600052604160045260246000fd5b6040519080825280601f01601f1916602001820160405280156120315781602001600182028036833780820191505090505b5090505b600085146120e45760018261204a9190612e2b565b9150600a856120599190612fc1565b60306120659190612da4565b60f81b8183815181106120a1577f4e487b7100000000000000000000000000000000000000000000000000000000600052603260045260246000fd5b60200101907effffffffffffffffffffffffffffffffffffffffffffffffffffffffffffff1916908160001a905350600a856120dd9190612dfa565b9450612035565b8093505050505b919050565b6000808273ffffffffffffffffffffffffffffffffffffffff163b119050919050565b82805461211f90612f15565b90600052602060002090601f0160209004810192826121415760008555612188565b82601f1061215a57805160ff1916838001178555612188565b82800160010185558215612188579182015b8281111561218757825182559160200191906001019061216c565b5b5090506121959190612199565b5090565b5b808211156121b257600081600090555060010161219a565b5090565b60006121c96121c484612cff565b612cda565b9050828152602081018484840111156121e157600080fd5b6121ec848285612ed3565b509392505050565b600061220761220284612d30565b612cda565b90508281526020810184848401111561221f57600080fd5b61222a848285612ed3565b509392505050565b60008135905061224181613659565b92915050565b60008135905061225681613670565b92915050565b60008135905061226b81613687565b92915050565b60008151905061228081613687565b92915050565b600082601f83011261229757600080fd5b81356122a78482602086016121b6565b91505092915050565b600082601f8301126122c157600080fd5b81356122d18482602086016121f4565b91505092915050565b6000813590506122e98161369e565b92915050565b60006020828403121561230157600080fd5b600061230f84828501612232565b91505092915050565b6000806040838503121561232b57600080fd5b600061233985828601612232565b925050602061234a85828601612232565b9150509250929050565b60008060006060848603121561236957600080fd5b600061237786828701612232565b935050602061238886828701612232565b9250506040612399868287016122da565b9150509250925092565b600080600080608085870312156123b957600080fd5b60006123c787828801612232565b94505060206123d887828801612232565b93505060406123e9878288016122da565b925050606085013567ffffffffffffffff81111561240657600080fd5b61241287828801612286565b91505092959194509250565b6000806040838503121561243157600080fd5b600061243f85828601612232565b925050602061245085828601612247565b9150509250929050565b6000806040838503121561246d57600080fd5b600061247b85828601612232565b925050602083013567ffffffffffffffff81111561249857600080fd5b6124a4858286016122b0565b9150509250929050565b600080604083850312156124c157600080fd5b60006124cf85828601612232565b92505060206124e0858286016122da565b9150509250929050565b6000602082840312156124fc57600080fd5b600061250a8482850161225c565b91505092915050565b60006020828403121561252557600080fd5b600061253384828501612271565b91505092915050565b60006020828403121561254e57600080fd5b600061255c848285016122da565b91505092915050565b61256e81612e5f565b82525050565b61257d81612e71565b82525050565b600061258e82612d61565b6125988185612d77565b93506125a8818560208601612ee2565b6125b1816130ae565b840191505092915050565b60006125c782612d6c565b6125d18185612d88565b93506125e1818560208601612ee2565b6125ea816130ae565b840191505092915050565b600061260082612d6c565b61260a8185612d99565b935061261a818560208601612ee2565b80840191505092915050565b6000612633603283612d88565b915061263e826130bf565b604082019050919050565b6000612656602683612d88565b91506126618261310e565b604082019050919050565b6000612679602583612d88565b91506126848261315d565b604082019050919050565b600061269c601c83612d88565b91506126a7826131ac565b602082019050919050565b60006126bf602483612d88565b91506126ca826131d5565b604082019050919050565b60006126e2601983612d88565b91506126ed82613224565b602082019050919050565b6000612705600c83612d88565b91506127108261324d565b602082019050919050565b6000612728602c83612d88565b915061273382613276565b604082019050919050565b600061274b600e83612d88565b9150612756826132c5565b602082019050919050565b600061276e603883612d88565b9150612779826132ee565b604082019050919050565b6000612791602a83612d88565b915061279c8261333d565b604082019050919050565b60006127b4602983612d88565b91506127bf8261338c565b604082019050919050565b60006127d7602e83612d88565b91506127e2826133db565b604082019050919050565b60006127fa602083612d88565b91506128058261342a565b602082019050919050565b600061281d603183612d88565b915061282882613453565b604082019050919050565b6000612840602c83612d88565b915061284b826134a2565b604082019050919050565b6000612863602083612d88565b915061286e826134f1565b602082019050919050565b6000612886602f83612d88565b91506128918261351a565b604082019050919050565b60006128a9602183612d88565b91506128b482613569565b604082019050919050565b60006128cc603183612d88565b91506128d7826135b8565b604082019050919050565b60006128ef601f83612d88565b91506128fa82613607565b602082019050919050565b6000612912600e83612d88565b915061291d82613630565b602082019050919050565b61293181612ec9565b82525050565b600061294382856125f5565b915061294f82846125f5565b91508190509392505050565b60006020820190506129706000830184612565565b92915050565b600060808201905061298b6000830187612565565b6129986020830186612565565b6129a56040830185612928565b81810360608301526129b78184612583565b905095945050505050565b60006020820190506129d76000830184612574565b92915050565b600060208201905081810360008301526129f781846125bc565b905092915050565b60006020820190508181036000830152612a1881612626565b9050919050565b60006020820190508181036000830152612a3881612649565b9050919050565b60006020820190508181036000830152612a588161266c565b9050919050565b60006020820190508181036000830152612a788161268f565b9050919050565b60006020820190508181036000830152612a98816126b2565b9050919050565b60006020820190508181036000830152612ab8816126d5565b9050919050565b60006020820190508181036000830152612ad8816126f8565b9050919050565b60006020820190508181036000830152612af88161271b565b9050919050565b60006020820190508181036000830152612b188161273e565b9050919050565b60006020820190508181036000830152612b3881612761565b9050919050565b60006020820190508181036000830152612b5881612784565b9050919050565b60006020820190508181036000830152612b78816127a7565b9050919050565b60006020820190508181036000830152612b98816127ca565b9050919050565b60006020820190508181036000830152612bb8816127ed565b9050919050565b60006020820190508181036000830152612bd881612810565b9050919050565b60006020820190508181036000830152612bf881612833565b9050919050565b60006020820190508181036000830152612c1881612856565b9050919050565b60006020820190508181036000830152612c3881612879565b9050919050565b60006020820190508181036000830152612c588161289c565b9050919050565b60006020820190508181036000830152612c78816128bf565b9050919050565b60006020820190508181036000830152612c98816128e2565b9050919050565b60006020820190508181036000830152612cb881612905565b9050919050565b6000602082019050612cd46000830184612928565b92915050565b6000612ce4612cf5565b9050612cf08282612f47565b919050565b6000604051905090565b600067ffffffffffffffff821115612d1a57612d1961307f565b5b612d23826130ae565b9050602081019050919050565b600067ffffffffffffffff821115612d4b57612d4a61307f565b5b612d54826130ae565b9050602081019050919050565b600081519050919050565b600081519050919050565b600082825260208201905092915050565b600082825260208201905092915050565b600081905092915050565b6000612daf82612ec9565b9150612dba83612ec9565b9250827fffffffffffffffffffffffffffffffffffffffffffffffffffffffffffffffff03821115612def57612dee612ff2565b5b828201905092915050565b6000612e0582612ec9565b9150612e1083612ec9565b925082612e2057612e1f613021565b5b828204905092915050565b6000612e3682612ec9565b9150612e4183612ec9565b925082821015612e5457612e53612ff2565b5b828203905092915050565b6000612e6a82612ea9565b9050919050565b60008115159050919050565b60007fffffffff0000000000000000000000000000000000000000000000000000000082169050919050565b600073ffffffffffffffffffffffffffffffffffffffff82169050919050565b6000819050919050565b82818337600083830152505050565b60005b83811015612f00578082015181840152602081019050612ee5565b83811115612f0f576000848401525b50505050565b60006002820490506001821680612f2d57607f821691505b60208210811415612f4157612f40613050565b5b50919050565b612f50826130ae565b810181811067ffffffffffffffff82111715612f6f57612f6e61307f565b5b80604052505050565b6000612f8382612ec9565b91507fffffffffffffffffffffffffffffffffffffffffffffffffffffffffffffffff821415612fb657612fb5612ff2565b5b600182019050919050565b6000612fcc82612ec9565b9150612fd783612ec9565b925082612fe757612fe6613021565b5b828206905092915050565b7f4e487b7100000000000000000000000000000000000000000000000000000000600052601160045260246000fd5b7f4e487b7100000000000000000000000000000000000000000000000000000000600052601260045260246000fd5b7f4e487b7100000000000000000000000000000000000000000000000000000000600052602260045260246000fd5b7f4e487b7100000000000000000000000000000000000000000000000000000000600052604160045260246000fd5b6000601f19601f8301169050919050565b7f4552433732313a207472616e7366657220746f206e6f6e20455243373231526560008201527f63656976657220696d706c656d656e7465720000000000000000000000000000602082015250565b7f4f776e61626c653a206e6577206f776e657220697320746865207a65726f206160008201527f6464726573730000000000000000000000000000000000000000000000000000602082015250565b7f4552433732313a207472616e736665722066726f6d20696e636f72726563742060008201527f6f776e6572000000000000000000000000000000000000000000000000000000602082015250565b7f4552433732313a20746f6b656e20616c7265616479206d696e74656400000000600082015250565b7f4552433732313a207472616e7366657220746f20746865207a65726f2061646460008201527f7265737300000000000000000000000000000000000000000000000000000000602082015250565b7f4552433732313a20617070726f766520746f2063616c6c657200000000000000600082015250565b7f4d696e7420616c72656164790000000000000000000000000000000000000000600082015250565b7f4552433732313a206f70657261746f7220717565727920666f72206e6f6e657860008201527f697374656e7420746f6b656e0000000000000000000000000000000000000000602082015250565b7f496e76616c6964206d696e746572000000000000000000000000000000000000600082015250565b7f4552433732313a20617070726f76652063616c6c6572206973206e6f74206f7760008201527f6e6572206e6f7220617070726f76656420666f7220616c6c0000000000000000602082015250565b7f4552433732313a2062616c616e636520717565727920666f7220746865207a6560008201527f726f206164647265737300000000000000000000000000000000000000000000602082015250565b7f4552433732313a206f776e657220717565727920666f72206e6f6e657869737460008201527f656e7420746f6b656e0000000000000000000000000000000000000000000000602082015250565b7f45524337323155524953746f726167653a2055524920736574206f66206e6f6e60008201527f6578697374656e7420746f6b656e000000000000000000000000000000000000602082015250565b7f4552433732313a206d696e7420746f20746865207a65726f2061646472657373600082015250565b7f45524337323155524953746f726167653a2055524920717565727920666f722060008201527f6e6f6e6578697374656e7420746f6b656e000000000000000000000000000000602082015250565b7f4552433732313a20617070726f76656420717565727920666f72206e6f6e657860008201527f697374656e7420746f6b656e0000000000000000000000000000000000000000602082015250565b7f4f776e61626c653a2063616c6c6572206973206e6f7420746865206f776e6572600082015250565b7f4552433732314d657461646174613a2055524920717565727920666f72206e6f60008201527f6e6578697374656e7420746f6b656e0000000000000000000000000000000000602082015250565b7f4552433732313a20617070726f76616c20746f2063757272656e74206f776e6560008201527f7200000000000000000000000000000000000000000000000000000000000000602082015250565b7f4552433732313a207472616e736665722063616c6c6572206973206e6f74206f60008201527f776e6572206e6f7220617070726f766564000000000000000000000000000000602082015250565b7f5265656e7472616e637947756172643a207265656e7472616e742063616c6c00600082015250565b7f4e6f7420617574686f72697a6564000000000000000000000000000000000000600082015250565b61366281612e5f565b811461366d57600080fd5b50565b61367981612e71565b811461368457600080fd5b50565b61369081612e7d565b811461369b57600080fd5b50565b6136a781612ec9565b81146136b257600080fd5b5056fea2646970667358221220a226a0d863b1400eab374ad3db4df92e6eeaf54c70912055c74d1e4b812121b264736f6c63430008040033",
  "linkReferences": {},
  "deployedLinkReferences": {}
}